:040000006F102079E4
:100004000000000000000000900D0000920D0000B0
:100014000000000090170000000000000000000035
:10002400901700009017000000000000000000007E
:10003400640E0000000000009017000000000000A3
:100044009017000090170000901700009017000010
:100054009017000090170000901700009017000000
:1000640090170000460E0000901700009017000043
:1000740090170000901700009017000090170000E0
:1000840090170000901700009017000090170000D0
:10009400901700009017000090170000D60D000084
:1000A40090170000901700009017000090170000B0
:1000B400320E000090170000901700009017000007
:1000C4009017000090170000901700009017000090
:1000D4009017000090170000901700009017000080
:1000E4009017000090170000901700009017000070
:1000F4009017000090170000901700009017000060
:1001040000000000901700009017000090170000F6
:10011400901700009017000090170000901700003F
:10012400901700009017000090170000901700002F
:10013400901700002A0E000090170000901700008E
:10014400901700009017000090170000901700000F
:1001540090170000901700009017000090170000FF
:1001640090170000901700009017000090170000EF
:1001740090170000901700009017000090170000DF
:1001840090170000901700009017000090170000CF
:1001940090170000901700009017000090170000BF
:1001A400000000000000000000000000000000004B
:0C01B4000000000000000000000000003F
:1001C000397101436EC619A0397141536AC866CAB4
:1001D00062CC5ECE19A0397101535AD056D252D496
:1001E0004ED64AD826DA22DC06DE3301614082820E
:1001F00041114AC026C222C406C68282B24D4101C4
:10020000024D924C224CB24B4101024B924A224A7F
:10021000B2494101024992442244B24041018280E4
:100220003D432A876373C3029377F700BDEFADE5C3
:10023000937606FF3D8ABA960CC34CC30CC74CC7D5
:100240004107E36BD7FE11E28280B306C3408A0602
:100250009702000096966780A6002307B700A306C2
:10026000B7002306B700A305B7002305B700A30412
:10027000B7002304B700A303B7002303B700A3020A
:10028000B7002302B700A301B7002301B700A30002
:10029000B7002300B700828093F5F50F9396850091
:1002A000D58D93960501D58D61B79396270097025A
:1002B000000096968682E78086FA9680C1171D8F89
:1002C0003E96E374C3F8A5B73367B500FD530D8BB5
:1002D00079E7B7877F7F9387F7F710419441B3722F
:1002E000F6003363F600BE92B3E262006397720CCD
:1002F0006318D6065041D441B372F6003363F6005A
:10030000BE92B3E262006398720A631BD604104582
:100310009445B372F6003363F600BE92B3E2620016
:100320006391720A631ED6025045D445B372F6003B
:100330003363F600BE92B3E26200639A72086311FF
:10034000D60210499449B372F6003363F600BE92A8
:10035000B3E26200639372085105D105E30FD6F64C
:100360001317060193970601631CF7001357060144
:1003700093D706013305F7409375F50F91E9828015
:100380004183C1833305F7409375F50F91E1828076
:100390001377F70F93F7F70F3305F7408280034683
:1003A000050083C60500050585056313D60065FABB
:1003B0003305D640828011059105E312D6FE014532
:1003C00082802105A105E31CD6FC01458280310510
:1003D000B105E316D6FC014582804105C105E31055
:1003E000D6FC01458280EFF2BFE018499306D007A2
:1003F0002A84136707F82380E5005845AE87B28446
:1004000063E1E602A380E500094798C088405044B4
:100410000C443E95EFA0E0249C405844BA979CC001
:10042000D5BBC166130727F8938616F8E3E0E6FE0E
:100430001307E007A380E500584521832381E500E9
:100440005845A381E5001147C9B70547634AC7006E
:100450009307200F81A89307200F1CC941018280B8
:1004600083C7050093D677002300D50093D6670095
:10047000858AA300D50093D65700858A2301D5002D
:1004800093D64700858ABD8BA301D5002302F500D2
:10049000A94663E7F6003317F7001377677009E79B
:1004A0009307100F1CC982801CC903C815001307CD
:1004B000F0079377F807639DE702A547E3DAC7F8EB
:1004C000094781478146A948338EE500034E0E0057
:1004D00013D38701A206A2070507B367FE00B36620
:1004E000D300E31317FFCDFEED56E3EBF6FA3DA084
:1004F0009306E00709476393D7028D47E3DAC7F411
:1005000003C7350083C7250022075D8F9317870037
:1005100021835D8F93170701C1831147B306F7004D
:100520006208B3B8E60013588841135EF741469E4F
:10053000932808008A08B698B3B6D8001353F6413A
:10054000F296E36FD3F463946600E36B16F5411102
:100550006357080293063700E3DFC6EE8146114E6B
:100560009308C100B38ED800B308D700AE9883C8F3
:100570000800850623801E01E394C6FF1107330E91
:10058000F7009356F741B338EE00C696E365D3EC17
:1005900063946600E361C6EDBA950CC55CC5E35F84
:1005A00008EA814739A8184593F6370010083E97A6
:1005B000B29683C6C6FF034607008507B18E2300A7
:1005C000D7005845E3E1E7FE51BDEFF27FC20111CC
:1005D000A1472E86AA8568003ECE02CC02CA2135EC
:1005E00005610DB9EFF2DFC079712A842EC632C4DD
:1005F000EFA020382246B2452AD48547680822D287
:100600003ED6D533456139B1EFF29FBB9307100F4A
:10061000751659712324F50AB387C500AA842E8460
:10062000368C2E8B814A3EC6B7CC0000130D450890
:10063000B7CD0000B7DB000022895A87B5462946AE
:10064000B2476371F902830707002300F90099C7D5
:100650006388D71C6395C71C2300090033098940B0
:100660006345201103C7440AB5476316F700930793
:10067000300F23A4F40A13060004814508184D36F0
:1006800003A7840A130A000452CC9307300F631B9C
:10069000F718938444082685EFA0A02D93095502EE
:1006A0002A8963653A052A86A6850818EF90707B2B
:1006B0001C18B7C5000013065002938505703385DA
:1006C0002701EF90107A9C18BE99130649020C1866
:1006D0006808238009FC812334081018D145680874
:1006E000A92BE2479818BA97A38F07FAB7C500005D
:1006F00013062002938585722285EF909076B7C508
:10070000000051469385C57413052402EF9070755F
:10071000B7C5000055469385457613056403EF90F1
:100720005074B7C5000059469385C5771305B404C6
:10073000EF9030730818EFA0C023AA842A860C1803
:1007400013051406EF90F07113851406B7C5000069
:100750001146938545792295EF90B07093845406A5
:1007600023209C000145656151BC639E0A0293856C
:100770000BCB2285EFA0E024AA8509C5114626856A
:10078000EF90306E93850BCB0145EFA08023AA85B7
:1007900019C51306000813854400EF90906C0909F1
:1007A000850A4A9B51BD9305A0032285EFA0A0199D
:1007B0002A8A75D523000500AA89930700028509B6
:1007C00003870900E30DF7FEB7C70000A285138574
:1007D000076CDD3C09E9CE8513858D6CF534133546
:1007E0001500A382A40AB7C70000A2851385476D30
:1007F000E13C11E54E85EF9070662382A40AA28544
:100800001385CC6ED13419E513060002CE856A85B6
:10081000EF9030659307A0032300FA0049B705095C
:10082000050739BDB7C5000069469385C57922859E
:10083000EF903063B7C5000075469385857B13053F
:10084000A401EF901062B7C500002D469385857D09
:1008500013057403EF90F0609304200411B731C5C1
:10086000B7274567938717301CC1B7B7CDEF93877C
:1008700097B85CC1B7E7BA989387E7CF1CC5B7575D
:100880003210938767475CC5B7E7D2C39387071FCA
:10089000232A0500232C0500231E05001CC9232044
:1008A0000506232205060145828005458280EFF278
:1008B0003F9429710A881307E5019305E505C2866F
:1008C00083470700034617001107E2074206D18F4E
:1008D0000346F7FF9106D18F0346E7FF2206D18F2B
:1008E00023AEF6FEE39EE5FC130608104287145380
:1008F0005C5B1107B58F5443B58F8326C7FFB58F57
:1009000093961700FD83D58F5CDFE312E6FE832FFD
:100910000500032F4500832E8500032EC500032309
:100920000501B784825A93020805C2851A89F288A4
:10093000F6837A847E87938494999356B7019317AC
:100940005700D58F9441A6971316E401B697B3C606
:100950001301E18EB3C61601B69791059356240094
:10096000CA97558E3A8446896393B20EB7F4D96E0E
:100970004284938414BA9395570013D9B701B346B0
:10098000C700B3E52501A695B3C67600AE962C4800
:100990001104AE96C6969315E70193582700B3E568
:1009A00015013E879E886398820A37C91B8FC284CF
:1009B0001309C9CD33E7C5007D8FB3F8C500336790
:1009C000170113D4B60193985600B3E8880003A426
:1009D000040ACA989104A29846971394E70193D801
:1009E00027001E9733641401B687B2836399920679
:1009F000B7C362CA9383631D931857009354B7011A
:100A0000B3C78600B3E898009E98AD8FC697832839
:100A1000080F1108C697B2979398E60113D62600DF
:100A2000B3E8C800BA862E86639F0203FE977A97C2
:100A3000C69E229E9A951CC158C12324D501232607
:100A4000C5010CC9231E050031616FF0AFFC9E8803
:100A50003E87B283DDB5B283B6872E8629BF2E8648
:100A6000BA86A28581BFA2853E87468471B719E206
:100A700001458280EFF22FF62A844111054505C415
:100A80009DC13C5089C78D477CD00D4529A8685031
:100A900019E9B384C5000549930900046384B400CF
:100AA0007C5089C7014541016FF02FF60317C4013F
:100AB00093071700C207C187231EF40083C60500F1
:100AC0002297230FD7005848210758C819E7184C18
:100AD000050718CC19E323222407639637012285E2
:100AE0002EC6F133B245850555BFEFF26FF00317FF
:100AF000C501130670032A8493071700C207C18734
:100B0000231EF500B306E500930700F8238FF600D7
:100B10006354E6081307F0038317C401635EF70408
:100B200022857133130770038317C401635EF704D2
:100B300083578401228513978700A1835D8F1C4C06
:100B4000231CE40493D68701C183A30BF4048357C9
:100B50004401230BD40413978700A1835D8F5C4865
:100B6000231EE40493D68701C183230DD404A30D6F
:100B7000F404353B6FF00FEA93861700231ED40070
:100B8000A297238F070049BF93861700231ED40026
:100B9000A297238F070049BF130770038317C4016F
:100BA000E348F7F893861700231ED400A297238FFB
:100BB0000700EDB7EFF2CFE3854439C9B1C96451FD
:100BC0002A84B9E43C512E898DE305379307E4016B
:100BD0001307E405238007008507E39DE7FE8547AB
:100BE000232A0400232C04003CD08147514693F66D
:100BF000C7FFA29613C7F7FF94420D8B0E07B305EC
:100C0000F90033D7E6002380E5008507E391C7FEAE
:100C100026856FF02FE0EFF2AFDD19712A842808E6
:100C20002EC632C42D392246B24528088935A28500
:100C30002808493709616FF0EFDDEFF26FDB5D7176
:100C40002E89B1652A84B284938585271306000412
:100C5000080836C6EF90F0200D4793172900B3D748
:100C6000E702B24601451387470093078004B34764
:100C7000F702BA97984285076369F710B305240114
:100C8000A6870146094893087004294333858540A7
:100C90006349A8046305B40E034704009008098360
:100CA0003297034707FC05462380E700034704000B
:100CB0001207137707036311C50A90083297034799
:100CC00007FCA380E7001307D0032381E700130785
:100CD000D003A381E700910729472380E700850718
:100CE00045A0034704008808110609832A97034793
:100CF00007FC0D042380E7000347D4FF0345E4FF0E
:100D00001207118113770703498F88082A97034731
:100D100007FCA380E7000347E4FF0345F4FF0A074D
:100D200019811377C703498F88082A97034707FC5F
:100D30002381E7000347F4FF1377F7032A9703475C
:100D400007FCA381E70063C4C800910781B7238231
:100D50006700014695071DBF034614001182518F9D
:100D600090083297034707FCA380E700034714006D
:100D70000A071377C7033297034707FCB9B729FE61
:100D800023800700858F9CC2268561616FF08FC824
:100D900001A037C500001305457FEF90B02CEF2070
:100DA000B05EAA8537D5000013058580EF90D01678
:100DB000EF20F05DAA8537D5000013058581EF90FF
:100DC000B015EF20305DAA8537D500001305858268
:100DD000EF90901401A0397106DE16DC1ADA1ED8E5
:100DE0002AD62ED432D236D03ACE3ECC42CA46C8CB
:100DF00072C676C47AC27EC0EF10101513050008C3
:100E0000EF00304EF250E2525253C2533255A255C7
:100E1000125682567247E2475248C248324EA24E9C
:100E2000124F824F216173002030EF101069730060
:100E300020302945EF106027854537050040EF1029
:100E4000E00D730020302145EF00D04711C937C5B0
:100E500000001305457EEF90F0202145EF0070481B
:100E600073002030B7F700E0D44305476394E602EF
:100E700023A2070003A7818611C703A781867D17D8
:100E800023A4E18603A7C18611C703A7C1867D17E6
:100E900023A6E18673002030EFF28FB5374400407F
:100EA000AA8513050440EF10601413040440930551
:100EB00000042285EF1020147DD96FF0AFB5EFF25A
:100EC0002FB32A89014493040004B30789000385E2
:100ED000070019C51375F50F05047D3FE31794FE50
:100EE0006FF04FB3B7F700E0D8438146799BD8C382
:100EF00088CBCCCB94C70147D8C73D4798C3B7E749
:100F000000E02386E740056723A0E7108280EFF228
:100F10002FAE41118545054502C202C423160100CA
:100F2000EF00B06583A7C18037470F001307072480
:100F3000B3D7E7024C003705004023150100231406
:100F4000F10089679387F7703EC2EF00106E054687
:100F5000854537050040EF00107B8545370500408B
:100F6000EF00B078854537050040EF00307BB7E7EC
:100F700000E0056723A2E71041016FF0AFA9EFF28F
:100F80002FA739711306C00381454800EFF04FA920
:100F900093070005138461864C003ED61385618655
:100FA0008D473ED0EF30A06403450400EF30505F22
:100FB00021616FF02FA6EFF2AFA339711306C003C2
:100FC00081454800EFF0CFA59307601F1384618629
:100FD0004C003ED6138561868D473ED0EF302061B0
:100FE00003450400EF30D05B21616FF0AFA2EFF258
:100FF0002FA039711306C00381454800EFF04FA2BE
:101000008967938787F9138461864C003ED61385E0
:1010100061868D473ED0EF30805D03450400EF30A0
:101020003058B73700207D5723A0E75A21616FF071
:101030006F9EEFF2EF9B2A84034505008145EF3058
:10104000F06B7537FD571CC02322042013060020C7
:10105000814513054400EFF0AF9C0326C42103250E
:1010600004218145EFF0CF9B232E04206FF08F9A4F
:10107000EFF20F9841112A84AE842EC693054500E5
:10108000034505007000EF30103519C5228555372E
:10109000054541016FF00F98B247E39997FE01456E
:1010A000CDBFEFF24F930327C52171719307002045
:1010B0003EC063F4E7000545E9A02A849304450097
:1010C0001306C52103450500A685EF302079832945
:1010D0004420638E09048547E39FF9FC0326C4215D
:1010E000A68513058420EFF04FB60327442193070C
:1010F0000040E3E2E7FC032984219307F9F0E3FCD5
:10110000F9FA8947E309F9FA631B390983270421AE
:10111000A6850A86BA972380070003250421EFF0ED
:101120006FCC82452285A9376318250769B7032646
:10113000C4218A86A6854800EFF00FCD3A57930761
:10114000300F6308F700824522851D372285D5358B
:101150009DB7B7D50000938585832800EFF0CF9623
:1011600005C5B7D50000938505842685EF90407F9F
:10117000E947E94522853EC0E53D89472322F42021
:1011800001454D616FF06F8882452285D5358547D1
:10119000E303F5F22322F420232E0420D5B7A14740
:1011A0000145E310F9FE8A852685EFF00FC28245DE
:1011B00022857D3D8D472322F420F5BDEFF2AF81DE
:1011C00093F7450041112A842E89638207108145D7
:1011D000EF3040771307C0033307E402B7B40020B1
:1011E0009387C4E12AC69384C4E1BA9798579307BA
:1011F00000056316F7047000938581962285238E7F
:10120000818AEF30A065B247138A81963E9A230007
:101210000A00EF20E06503C5C18B8145EF30104E19
:1012200013060064814513858196EFE07FFFB717B1
:10123000014003A7C7C01347070123A6E7C09307D0
:10124000C003B307F402A69798579307601F631D66
:10125000F7027000938581FA2285238E818AEF3010
:10126000E05FB2452285EF206038130600648145B7
:10127000138581FAEFE0DFFAB717014003A7C780B3
:10128000A166358F23A6E7809307C003B307F40256
:10129000BE9498548967938787F9631AF702B73425
:1012A000002083A6045A7D579387045A6395E6006D
:1012B00080C323A2072032471385045A23AEE720B8
:1012C000CD3385476315F5001385045A9D33937715
:1012D000890099CF93070064B307F402B715002083
:1012E00093850502130600642285BE95EF30E05118
:1012F000937509048DC51307C0033304E402B7B71F
:1013000000209387C7E13E9418548967938787F933
:101310006317F700373500201305055A193B4101C3
:101320006FE0BFEEEFE2DFECEF3010239377450084
:101330002A8499CBEF303026B71701401189938763
:101340000780216715C5D8CB41880DC001441949D4
:101350009374F40F2685EF307021AA8519C1268574
:10136000B13D050442044180E31424FF6FE09FEA8D
:1013700098CBD9BFEFE2DFE7411185451145B7149E
:10138000014002C202C402C6EF00501DE177414491
:101390000D494C00138504802312F10022C64AC473
:1013A000EF00C07485452145EF00501B4C001385AC
:1013B00004C02312810022C64AC4EF0020734101F9
:1013C0006FE05FE5EFE23FE1411102C202C402C6F5
:1013D000512C03A5C1809307803E3355F502138934
:1013E0008186814523200900938481867D15DD3C1B
:1013F0009307401F2320F9009C40FDFF71651305F2
:101400000520EF20C065BD3785452145EF0010154B
:10141000A147371501404C002312F100130505C008
:10142000930780043EC6D92537D500001305C5852E
:10143000EF90404383A5C18037D500001305858612
:10144000EF90802DF12EAA8537D5000013058587F2
:10145000EF90802CEF308013AA8537D5000013055C
:101460008588EF90602BEF306012E5476308F50048
:1014700037D5000013058589EF90C03E138501869E
:10148000EF00704037D500001305858AEF90C02823
:101490000149938A018637DA00009949B3872A0106
:1014A00083C5070013058A8B0509EF90E026E31733
:1014B00039FF2945EF90602AEFF07FA5B70500209E
:1014C000938601861386818093850522138541804A
:1014D000EF10900F19E537D500001305C58BEF907D
:1014E0006038B71901403709C801EFF05FA9938947
:1014F00009C0EFF05FAC37DA0000D53C1384815EA1
:101500001309B907130B007DA1454E854D2509E947
:1015100013054A8DEFF0BF9A23A064019C40FDFFA4
:10152000EF10205CEF30607F65D113860187835711
:101530000600B7063930096793865631130757A856
:101540002314E4002315F400231AE40023202401CB
:101550001387270054C085072326240114C82310AD
:10156000E600231BF4007D3B71BFB7170240984390
:10157000B706FFF041111367170098C3D843370629
:101580000200758FD8C39843B706F7FEFD16758F16
:1015900098C39843B706FCFFFD16758F98C3D843D0
:1015A000B70601FFFD16758FD8C39843B70600EC48
:1015B000FD16758F98C33707FF0098C723A607024B
:1015C00002C402C69843C166558F98C3B71602403D
:1015D00005679C42F18F3EC6A24785073EC4B247CD
:1015E00081E7A247E397E7FEB71702409C431397B2
:1015F000E7006357070685473EC632478547631FA6
:10160000F704B7170240D843B706C1FFFD16D8C389
:10161000D843D8C3D84313670740D8C3D843758F7E
:10162000D8C3D843B7063900558FD8C39843B706F7
:101630000001558F98C3984393166700E3DD06FEBB
:10164000D843B7160240719BD8C3D843136727000D
:10165000D8C32147DC42B18BE39EE7FE4101828083
:1016600002C661BFB7160240D8421146318B93873C
:10167000C1806305C70021466309C70237177A0096
:101680001307072098C337170240584311839376F6
:10169000F700370700201307070336978346070034
:1016A00098433357D70098C38280D842D4424166CA
:1016B00049833D8BF18E1306270015CF3D47630FFD
:1016C000E6024147630FE602454781456313E600A2
:1016D0004146A1E23747024003270780418B0DC7EF
:1016E00037177A00130707203306C70290C3C1DDFE
:1016F0009843058341BF81454946E1BF854535464D
:10170000C9BF81453D46F1B737173D001307079024
:10171000E1BF3715024058559316F700585563DF5F
:10172000060411833D8B9306170037177A001307C1
:1017300007203357D70298C35455A182BD8A8DE242
:1017400095463307D702058398C337170240585789
:1017500094433D8B050733D7E60298C3984369B796
:1017600005456394A600E546E9BF3D456396A6009E
:10177000D1463387E602C9BF8906E5BF3D8B930694
:10178000170037177A00130707203357D702F1B72E
:1017900001A097F1FF1F9381E12817F101201301A8
:1017A000618617B500001305A56497F5FF1F9385A3
:1017B00065851386018663FAC5008322050023A090
:1017C000550011059105E3EAC5FE1385018697B51D
:1017D0000020938565F06377B5002320050011058F
:1017E000E36DB5FEFD42739002BCAD427390428042
:1017F000B7620000938282087390023097F2FFFF75
:101800009382828093E2320073905230EFF0FFD5E2
:1018100097020000938242BB739012347300203011
:10182000B7F7FF1F03A547708280EFE27F9C8545D5
:101830001165E92B81451165D12B6FE0BF9D9307A1
:1018400000043CC1930700027CC1930700087CD1CF
:1018500023200500B70700042322050023240500E8
:101860002326050023280500232A0500232C050034
:10187000232E05002320050223220502232405022E
:101880002326050223280502232A0502232C05020C
:10189000232E0502232405042326050423280504FA
:1018A000232A0504232C0504232E050423200506E2
:1018B000232405062326050623280506232A0506D4
:1018C000232C0506232E05062320F508B707000262
:1018D0002322F5082322F50AB70702003707200064
:1018E0002326F50A93070010232405082326E5087C
:1018F00023280508232A0508232C0508232E05087C
:101900002320050A2324050A2328F50A232A050A89
:10191000232C050A8280411102C6B78602409C4AE8
:1019200041672E057D17F18B798D9A055D8D93F5B5
:10193000057CC98D93E51500B70750008CCAF917CF
:10194000324705073AC6984A058B01C73247E3F983
:10195000E7FE3247B7075000FD1701456307F70060
:10196000B7870240C84B4205418141018280411145
:10197000B787024002C6984BC166FD162E05758DCD
:10198000718B9A05598D93F5057CC98DD0CB93E564
:1019900035008CCBB7070500B7860240F9173247F0
:1019A00005073AC6984A058B01C73247E3F9E7FEB7
:1019B0003245B7070500FD173335F5004101828038
:1019C00023ACA1862A878147B70810401303006023
:1019D000130EF6FF6396C700B797024088CB82804C
:1019E000B3866702232017012A88AE9614C7930690
:1019F000070163F3C7013688232607018507368769
:101A0000D1BF916623AAA1860147AA873703008028
:101A100093860660130E0060930EF6FF6316C700F0
:101A2000B7970240C8C782803308C70323A0670066
:101A3000D4C3AA882E9823A40701138807016373CF
:101A4000D701C28823A617010507C287C1BF3797F0
:101A500002401C4393E717001CC38280B7970240E3
:101A6000C8CB8280379702401C4FB7061000D58F35
:101A70001CCF8280EFE2CFF7378402401C4093E70F
:101A800087001CC0C5371C40896693E747001CC00F
:101A9000B7970240984F558F98CF984F13672700FC
:101AA00098CF6FE02FF799C5379702405C4F5D8D57
:101AB00048CF8280B7970240D84F1345F5FF798D04
:101AC000C8CF8280B70701401387074083A707402C
:101AD000584B698F09C77D8D3335A0008280014541
:101AE0008280B707014023AAA74082809C4513F754
:101AF000070113F8F70001C7D8413368E80083D520
:101B0000050013F7F50F39C318418146854E3D4F47
:101B1000930F800293028004214E3396DE00B3F8C7
:101B2000C500631116039398260033131F01134356
:101B3000F3FF3377E300B318180133E7E800639F3E
:101B4000F70550C98506E39AC6FD18C11307F00FC3
:101B50006375B70454412146854E3D4F930F800273
:101B600093028004414EB398CE0033F7150163927F
:101B7000E8021317260001173313EF001343F3FF96
:101B8000B376D3003317E800D98E639DF701232A7B
:101B900015010506E319C6FD54C18280E39457FA86
:101BA00010C94DB7E39757FE23281501DDB7084547
:101BB0006D8D3335A00082800CC982804CC9828033
:101BC000371702405C439146B18B6385D700A1462D
:101BD0006386D706B7177A00938707201CC137168C
:101BE00002405C4237070020130707049183BD8B36
:101BF000BA9783C607001C41B3D7D7005CC15442D3
:101C0000A1829D8ABA9683C60600B3D6D70014C5B2
:101C10005442AD829D8A369703470700B3D7E70049
:101C20005CC5584239839376370013870181369714
:101C300003470700B3D7E7021CC982805C435843BF
:101C4000C166C983758FB7F6FF1F83A6C670BD8BAB
:101C500089071396160163480600C546014663923C
:101C6000D702C94739A88946638FD702BD46638E1C
:101C7000D702C146638ED702C54601466393D7009B
:101C8000C1471DEF3747024003270780418B05C737
:101C900037177A0013070720B307F7021CC121D2B8
:101CA0001C41858325BF01466DBF0546B547D1BFA1
:101CB0000146BD47F9B737173D0013070790E9BF45
:101CC000B7150240D8559316F700D85563DF0604C0
:101CD00011833D8B9306170037177A0013070720EF
:101CE0003357D70218C1D455A182BD8A8DE29546DB
:101CF0003307D702058318C13717024058571441DC
:101D00003D8B050733D7E60218C1184171B78545E9
:101D10006394B600E546E9BFBD456396B600D1467B
:101D20003387E602C9BF8906E5BF3D8B93061700DE
:101D300037177A00130707203357D702F1B799C531
:101D4000371702405C4B5D8D48CB8280B71702404D
:101D5000D84B1345F5FF798DC8CB828099C53717CD
:101D600002401C4F5D8D08CF8280B7170240984F0C
:101D70001345F5FF798D88CF828099C537170240CA
:101D80005C4F5D8D48CF8280B7170240D84F134516
:101D9000F5FF798DC8CF8280935755000547639929
:101DA000E700B71702409C4333D5A700058982801E
:101DB00009476396E700B71702409C53F5B7B7177A
:101DC0000240DC53D5B7371702405C5793F7F7F062
:101DD0005D8D48D78280B7160240DC5645777D1767
:101DE000F98F5D8DC8D6828009C9371702401C4320
:101DF000B7060010D58F1CC38280B71602409C42E4
:101E0000370700F07D17F98F9CC2828099C537177C
:101E100002401C575D8D08D78280B7170240985743
:101E20001345F5FF798D88D78280835705003737B2
:101E30000140930607C0C207C1836300D504B706FB
:101E40000040630CD502938606406308D502B7169E
:101E50000040138606806302C502938606C0630EA7
:101E6000D50013070740630AE50037570140930682
:101E700007C06304D5006317E50003D7250093F777
:101E8000F7F8D98F37170040630DE50013070740B7
:101E90006309E50093F7F7CF03D76500C207C18355
:101EA000D98F2310F50083D745002316F50283D779
:101EB00005002314F502B7370140138707C0630EEE
:101EC000E50093870740630AF500B7570140138781
:101ED00007C06304E5006316F50083C78500231877
:101EE000F5028547231AF50082808357050091C5C6
:101EF00093E717002310F5008280C207C183F99B86
:101F0000C207C183C5BF8357C50009C6DD8D23162F
:101F1000B500828093C5F5FFFD8DD5BF93C5F5FF54
:101F2000C205C1812318B5008280EFE26FAC8356F1
:101F30000501F577FD17F58F83D6650003D7C5003A
:101F40007971D58F2318F5008356C500FD779387E7
:101F5000379FF58F83D645002A842EC6D58F83D62A
:101F60008500D58F83D6A500D58F2316F50083571E
:101F70004501C207C18393F7F7CFD98F231AF50024
:101F800068083D39B747014093870780B245631F12
:101F9000F402A2576547B387E702984193064006CB
:101FA0000A07B3D7E70233D7D702B3F7D70212072E
:101FB000920793872703B3D7D702BD8BD98FC20768
:101FC000C1832314F40045616FE0CFA49257D9B7C1
:101FD00081C98357C5000967D98F2316F500828010
:101FE0000357C500F977FD17F98FC5BF93F5F51FA6
:101FF0002312B5008280035505006D8D3335A00096
:10200000828083A781879843634B070298433706F2
:1020100000304E05518F98C39843370600804D819C
:10202000518F98C3C8C38CC737970240114650CB15
:1020300023220700DC47054523ACF1868280014559
:102040008280EFE2EF9A854789456318F5003715DE
:102050000140EFF07FB66FE0EF9B37150140EFF0E6
:10206000FFB5D5BFEFE2CF98854785456318F500EA
:1020700037150140EFF05FB46FE0CF99371501409D
:10208000EFF0DFB3D5BF37F7FF1F81471307D77EC8
:1020900099463306F740834506003306F500850769
:1020A0002300B600E397D7FE828093878188984308
:1020B0003A9588C3828003A7818823A2E188B787E5
:1020C000024003A7471C2DEF03A74719894763F96F
:1020D000E706EFE2EF9103D58189F9451384818901
:1020E000EFF07F8393572500858BB1C74D99131669
:1020F0000501035504004182F945EFF05F873787FA
:1021000002408327071093E717002320F710832747
:102110000710858BEDFFB787024003A7471C11CB43
:1021200023860188D843B706008093C6E6FF758FE3
:10213000D8C36FE02F8E136545004205418145BF2E
:10214000B787024003A7471C19CB23860188D843D1
:10215000B706008093C6E6FF758FD8C38280828061
:10216000EFE26F879384818903D50400954513843A
:102170008189EFF04FFA2A8903D504008545EFF0F5
:102180008FF99377F90113896189638F0716834764
:102190000900D1E7035504008547F9452300F900FC
:1021A000A38AF188EFF02FF71376C5FF42069377E5
:1021B00015004182B5C31366260003550400F94596
:1021C000EFF0EFFA035504008145EFF0CFF41376FA
:1021D000E5FF42060355040041821366062081454F
:1021E000EFF0EFF8035504008145EFF0CFF21366EE
:1021F000352003550400420641828145EFF02FF758
:1022000083A7018913074006B3F7E70293872703E3
:10221000238AF1806FD07FFF1366160079BF0547D0
:102220006397E70089472300F900A38A0188938711
:10223000618A03870700634F07069384518183C631
:10224000040021476391E60603550400F945EFF0C9
:102250008FEC1376350F03550400F9452380C40035
:10226000EFF0EFF023800400035504008145EFF008
:102270008FEA1376E5FF4206035504004182136698
:1022800006208145EFF0AFEE035504008145EFF0E5
:102290008FE81366352003550400420641828145CC
:1022A000EFF0EFEC29A0130700F82380E70023826A
:1022B000018A8DB79387D18A03C707009306170059
:1022C0002380D7009546E314D7FE1375050265F108
:1022D000938451812380070083C70400114903556B
:1022E0000400F945E38527F7EFF0EFE21376350FA9
:1022F0000355040013664600F9452380C400EFF03F
:102300000FE7238024018DB7034709008547631A2F
:10231000F7081387518983470700A14603D50400B6
:10232000850793F7F70F2300F700639BD70023007F
:102330000700230009002146F945EFF04FE3D9BD1E
:10234000F945EFF04FDD1376C5FF42069377150090
:102350004182A9C71366260003550400F945EFF032
:102360000FE1035504008145EFF0EFDA1376E5FF46
:102370004206035504004182136606208145EFF0B2
:102380000FDF035504008145EFF0EFD813663520C9
:102390004206418281450355040045B71366160085
:1023A00065BF1384418A834A0400138A618A834685
:1023B0000A0093871A001307000893F7F70F639A30
:1023C000E6063D476385EA002300F400A1B503D586
:1023D00004002300040023000900138451812149D3
:1023E0002146F945A386018A23000A00230024011F
:1023F000EFF0EFD72300240103D504008145EFF06F
:102400008FD11376E5FF420603D50400418213669F
:1024100006208145EFF0AFD503D504008145EFF0EC
:102420008FCF1366352042064182814503D50400D3
:1024300029B79389518103C709000DEB1147E39533
:10244000EAF803D50400F94523000400EFF0AFCC0F
:102450001376350F03D5040013664600F945238033
:10246000C900EFF0CFD02380590179B791466319A5
:10247000D7023D47E39AEAF403D5040023000400A1
:1024800021442146F945A386018A2300090023003F
:102490000A0023808900EFF08FCD23808900A9BF37
:1024A0002300F40093074006E396FAD603D5040010
:1024B00021668145EFF0AFCB2386018AA386018A8E
:1024C00023860188A147230004002300090023007C
:1024D0000A002380F9002146F94589BFEFD25FD178
:1024E0009387518A03C707001377F70F3DC303A7EC
:1024F000818883A6818A158F9306301F63F9E604CD
:10250000374702402380070083270780138481898F
:102510000355040093E747002320F7802166814597
:10252000EFF0EFC42386018AA386018A2382018A01
:10253000238B018803550400238601882383018AA5
:1025400021472146F945A38AE180EFF04FC26FD0C1
:102550007FCC1389C18A8347090013844189D9EB51
:1025600083C6618905471389618993844181636BBF
:10257000D70003D581899545EFF0EFB97D8919C161
:10258000238004009387818890439386818A9442B4
:1025900083C50400158E938681881387818A6362C0
:1025A000B6040346090085476313F60413860189C0
:1025B0001C42B745030093851540B387B702B7A502
:1025C0002600938595ECAE971CC213064006B3F720
:1025D000C702938727032380F4009C421CC3EFF0BB
:1025E0003FB883470400A5D7230004008DB79307A5
:1025F0002003D5B7834704009384C188BDC383A754
:10260000818803A7818A998F1307900F637BF70452
:102610002300040013848189035504008545EFF0ED
:102620008FAF9377450095EFEF10E07303550400EB
:1026300021668145EFF0AFB3A386018A2382018A28
:1026400003550400238B01882383018A21472146F7
:10265000F9452300090023800400A38AE180EFF0FC
:102660000FB183C70400E38407EE03A7418883A763
:102670008188998F13073006E37BF7ECEFF0BFA357
:10268000F9B5EFD2FFB641118545414502C202C4FA
:1026900002C6EFF0AFEC8D472312F100C1473EC6F2
:1026A0004C008D47371501403EC4EFF02FC48945DB
:1026B00037150140EFF04FD0854537150140EFF059
:1026C000AFCF41016FD01FB5EFD29FB20145EFF000
:1026D000AFF14145EFF02FEF3565EFF0CFEF054556
:1026E000EFF08FF01305D003EFF00FEB65DD6FD047
:1026F0007FB2EFD2FFAFEF100067B7870240984379
:10270000D176FD16758F98C391462386D18AD8431A
:10271000B70600808506558FD8C303A70710136737
:10272000170023A0E7103787024083270710858B07
:10273000EDFF05472386E18803A7818823A2E1886E
:10274000EFF04FB36FD01FADEFD2FFA81384818994
:10275000035504008545EFF00F9CAA84035504003F
:102760008145EFF04F9BAA89035504009545EFF092
:102770008F9A93F74400C5C39397390163D7070035
:102780002A8993F7040231ED89CBB78602409C4237
:102790007D771307F77FF98F9DA803550400216605
:1027A0008145EFF0CF9C2386018AA386018A23828C
:1027B000018A238B01880355040023860188238323
:1027C000018A21472146F945A38AE180EFF02F9A3B
:1027D000B78702409C43AD83858B2380F1886FD0FF
:1027E000DFA295CB03550400C145EFF0CF921189CC
:1027F000B786024001E91379F9018547B78602409F
:10280000E307F9F89C42056713070780D98F9CC23C
:102810002685C53575BF2685EF10E0543747024041
:1028200083270780ED9B2320F7800547A382E18A59
:1028300003A7818823A4E18A61BFEFD2DF993171B8
:1028400037960240B7067000370760005C4AF58F84
:10285000E39EE7FE83C7C18A9384C18A9DC703D5DF
:102860008189F94513848189EFF0EF8A1376C5FFDA
:102870004206937715004182638207201366260083
:1028800003550400F945EFF08F8EEFF04F9C8967F8
:1028900093870771B7960240FD17C207C18381C7AE
:1028A0009842058B75FB4800EFE07FF985473EC2F3
:1028B000930700203ED60569930700083ECD3706F2
:1028C000200093070004130909803784024032C9AD
:1028D0004AD202CC02D002D802DE82C882C482CAA6
:1028E00082CC02C33ECF1C48378501801305150CEE
:1028F0008D9B1CC8B246A2471840D58FB78620FFD3
:102900009386F610758FD98F4247D98F2257D98F6A
:102910006257D98F37071000D98F1CC01C40D98F40
:102920001CC016478647D98F3647D98F5CC0F647FB
:102930001CC486575CC4D656C657184CD58FE6566D
:10294000D58FC166938616F4758FD98F1657B796B3
:1029500002404207D98F1CCC0A47F657D98F5CCC6E
:102960009C4E3747DEF8130737F2F98F3A47D98F75
:102970001307060CD98F9CCE138701868347570017
:1029800083454700A207CD8F3CC003C7118683C78C
:102990000186854522075D8F83C72186C2075D8F2B
:1029A00083C73186E207D98F7CC0B70702009387BF
:1029B00007022328C4102326F410EFF0CF8E3745EA
:1029C0000020B76500209309C59509469385C53752
:1029D0001305C595EFE0DFFE37450020B745002021
:1029E000130AC58E1D469385C5971305C58EEFF056
:1029F0004F8123AE418923A0318B1C407D77130783
:102A0000F77FF98F1CC083C7018891C71C4033E949
:102A1000270123202401B78602409C4251777D176D
:102A2000F98F9CC2EFF00F8583C70400138481895E
:102A3000A9EB0355040021668145EFE05FF3A3860F
:102A4000018A2382018A238B01880355040023868F
:102A500001882383018A21472146F9452380040008
:102A6000A38AE180EFE0BFF00547238AE18803A74E
:102A7000818823A4E18A29616FD02FF9136616009B
:102A800001B503550400F945EFE0FFE81376C5FFF3
:102A9000420693771500418281CF136626000355C5
:102AA0000400F945EFE0BFEC83C70400D5FF51B740
:102AB00013661600EDB783A7C1871307000293F7CB
:102AC000070F639FE700B79702409C533707FE1F2D
:102AD000F98F99C7EFD2CFF1EFF03FD66FD08FF3D8
:102AE0008280EFD2EFF0EF10C026EF10000BEFF076
:102AF000FF9ED1376FD00FF2EFD28FEF37870240B2
:102B00001C4B2E8481458D9B1CCB50595C4114433A
:102B1000D18F378620FF1306F610F18ED58F14451E
:102B2000D58F5445D58F5451D58F5455D58FB70671
:102B30001000D58F1CC31C43D58F1CC3545D1C5D76
:102B4000D58F3441D58F7441D58F3445D58F744599
:102B5000D58F3449D58F7449D58F5CC33C4D1CC784
:102B60007C4D5CC730597C55144FD18F416613069C
:102B700016F4F18ED58F745937960240D58F3451A3
:102B8000C206D58F1CCF3C5D745DD58F5CCF83268C
:102B9000850883270508184ED58FB746DEF893863B
:102BA00036F2758FD98F0327C508D98F03274509BA
:102BB000D98F032785092285D98F1CCE2166EFE0A6
:102BC0001FDB2146F9452285EFE07FDA05456FD00E
:102BD0006FE4EFD2EFE1317185452A847165EFF042
:102BE0000F968547239CF188EFF01FAE37470240D0
:102BF000832707809384818993E747002320F78008
:102C0000EFE0BFC2EFE0BFE4896793870771B79633
:102C10000240FD17C207C18381C79842058B75FB2F
:102C20004800EFE0DFC18567938707803ED2854784
:102C30003EC283D50400930700203ED693070008C8
:102C4000370920003ECD4800930700044AC93ECF13
:102C500002CC02D002D802DE82C882C482CA82CCF0
:102C600002C3EFF07FE98347540003474400B7866F
:102C70000240A207D98FBCC2034714008347040057
:102C80003785018022075D8F834724008545130522
:102C9000150CC2075D8F83473400E207D98FFCC251
:102CA000B707020023A826119387070223A6F61070
:102CB000EFE07FDF29616FD0EFD5EFD26FD3B79709
:102CC0000240C04B13170401635A0702137704082C
:102CD0001DC303A7C187C1461377070F6319D70028
:102CE000F847B7060080584714C323A4070013050C
:102CF0000008EFE0BFD62165EFE05FD69317F40040
:102D000063DA07029377040489C713050004EFE030
:102D1000FFD49377140081C70545EFE03FD4635893
:102D20000400EFF07FA237050080EFE03FD341655C
:102D3000EFE0DFD26FD00FCEEFD28FCB2A84EFE05F
:102D40003FAE23AEA186EFF0DF9383473400034705
:102D500044002285B98F03475400B98F37470300D9
:102D600013071740B387E70237A72600130797EC2E
:102D7000BA9723A8F188EFF0DFE537450020B76563
:102D800000201304C59509469385C5371305C595DD
:102D9000EFE01FC337450020B74500209304C58EE0
:102DA0001D469385C5971305C58EEFE09FC523AEDD
:102DB000918823A0818A0967B7E700E023A4E71080
:102DC000A38607446FD00FC5EFD28FC23971930726
:102DD00000603ECA930700323ECC8967938747B0B4
:102DE0003ECE930720033ED0930730103ED2B72744
:102DF000554099073ED4B7270000938747063ED633
:102E0000B7270000938727043ED8B7270000938791
:102E100027003EDAB7573412938787672A89480814
:102E20002EC632C4B68402DC3EDEEF1020632A8454
:102E300019E92246B245A6864A85EF1060572A84D2
:102E40002685EFF07FEF228521616FD0AFBCEFD2F6
:102E50002FBA03C881FAB7B60020938746F81387C4
:102E600081FA238007010348170093E505F8A3833F
:102E7000B700A3800701034827002384C7002381EC
:102E800007010348370003476700938546F8A3818D
:102E9000070113080030239207012383E700A547A9
:102EA00023AAF18A1386418BEF10F0526FD08FB6B0
:102EB000EFD28FB103D9E18A03DC218B138781FA2A
:102EC0003306890193073006130101C0834577005B
:102ED00063C2C71E83C681FAB7B90020938749F839
:102EE0002380D70083461700A383B700A380D700B1
:102EF00083462700137B7C002A8A2381D7008346E0
:102F0000370003476700938A49F8A381D7002383DA
:102F1000E7009384018B93573C00631F0B082390B9
:102F2000F40083D70400937B79002384FA006317AD
:102F30000B0063850B0085072390F4001306004007
:102F400081450A85EFD0CFAD03D4040081451385B8
:102F50009A002286EFD0CFACB7360020935C3900C0
:102F600081479386067C63EB8704A1458147B3853F
:102F70007541054563E68706336989011379790050
:102F8000631109120D044204418093178400135702
:102F90008400239084001904D98F23AA818A938501
:102FA00049F81386418B52852392FA00EF10B04204
:102FB000130101406FD0CFA4850795B73386FC007D
:102FC00036960346060013971700930501402E9787
:102FD0008507A300C7C02301C7C093F7F70F61B7E8
:102FE000139717009306014005073697834607C0DD
:102FF000138897005698B3D676412300D7C08146F0
:1030000063C2B60213862700060613070140138821
:10301000970081463A96569863EB7603850793F7B7
:10302000F70F89BF834807C013F6180009CA034386
:1030300008003316D500336666002300C80093D815
:1030400018008506230017C193F6F60F55BF834875
:1030500006C013F7180009CF034308001387860042
:10306000330777413317E500336767002300E80033
:1030700093D818008506230016C193F6F60F69BF92
:10308000B307670103C50600B397F50093C7F7FFC1
:10309000E98F05072380F6001377F70FE342C7FE99
:1030A000D5B5214693068400014733066641D6967E
:1030B0008545EDB70946EFF09FD9DDBDEFD24F93BF
:1030C00003D7E18A03D8218B138481FA33060701E1
:1030D000930630068345740063C6C60A83C781FA27
:1030E00037B60020930646F82380F6008347140085
:1030F000A383B6000607A380F60083472400AA88AE
:10310000B2852381F60083473400130546F8130384
:1031100046F8A381F600834764002383F6009317E3
:103120001800C207C1832384F600B74600209386A7
:103130004682369781460905631AD8028D07C20771
:10314000C1831397870093D687002398F18A990744
:10315000558F23AAF18A938545F81386418B4685BE
:103160002312E300EF1030276FD0CF8A03560700F9
:103170008506C206A303C50021822304C500C182BF
:10318000090755BF0946EFF09FCC8345740037D53A
:103190000000130585A5EF702058F9B7EFD24F85D1
:1031A00003D6E18A138781FA9307300683457700B7
:1031B00063ECC70C83C681FAB7B40020938744F848
:1031C0002380D700834617008348A7000348B70031
:1031D000A380D70083462700A383B7002A842381D6
:1031E000D700834637001355360023851701A38186
:1031F000D700834647001D8AA38507012382D70095
:1032000083465700A382D700834667002383D700F5
:10321000834687002384D70083469700A384D70082
:10322000B736002085479385067CB397C700AA95DB
:10323000E2071306F00F03870500E1879386067CFB
:103240006384C8006318C802AA96D98F37D50000D6
:103250002380F600130585A7EF70C060B14723AA4D
:10326000F18A938544F81386418B2285EF10B016BE
:103270006FC05FFA93C7F7FFF98F37D5000023803F
:10328000F500130505A9C9BF0946EFF05FBCCDB72E
:10329000EFC21FF683D6E18A138781FA93073006BF
:1032A0008345770063E9D70803C681FA37B8002061
:1032B000930748F82380C70003461700A383B7008D
:1032C0008606A380C70003462700930548F823819C
:1032D000C70003463700A381C70003464700238287
:1032E000C70003465700A382C70003466700238335
:1032F000C700034687002384C70003469700A384C2
:10330000C7000346A7000347B7002385C700A3856E
:10331000E700B7470020938747822207BE96518F68
:10332000B14723AAF18A1386418B2390E600EF1060
:10333000900A6FC03FEE0946EFF07FB1DDBFEFC2EC
:103340003FEB138781FA8345770083D7E18A03D760
:10335000218B1306300611713E976348E61403C6AD
:1033600081FA37BE002013074EF8138881FA230034
:10337000C70003461800A303B70093F27700A30029
:10338000C700034628002143330353402301C700ED
:1033900003463800854F8D83A301C70013060060E4
:1033A0002312C70003466800AA8EB39F6F00230351
:1033B000C700034688008A88138581FA2304C70062
:1033C00003469800F2858543A304C7000346A8007E
:1033D0002305C7000346B800A305C7003737002000
:1033E0001307077CBA9701460347C800636FE600DE
:1033F000B14723AAF18A938545F81386418B7685D8
:10340000EF10607D11616FC0FFE00347D50081467A
:103410002380E80063CF660081461397060141834D
:10342000636A57040506420641828508050585073B
:1034300065BF034ED50013F776003397E3003317CB
:103440005700620793701E006187038F0700638E29
:1034500000003367E7018506135E1E00C206238065
:10346000E700A306C501C18275B71347F7FF33779D
:10347000EF00D5B703CE08003397D3006207B370CF
:10348000FE016187038F1700638C00003367E7013B
:10349000135E1E00A380E7002380C8018506B5BF28
:1034A0001347F7FF3377EF00E5B70946EFF03F9A90
:1034B00091BFEFC2FFD303D6E18A03D8218B1387D4
:1034C00081FA33030601930730068345770063C60C
:1034D000670A03C381FAAA8837B50020930745F825
:1034E0002380670003431700A383B7008345870049
:1034F000A3806700034327002384B7008345970018
:103500002381670003433700A384B7008345A700E6
:10351000A3816700130300602392670003436700E1
:103520000347B700060623836700A385E7003747F4
:103530000020130747822385B7003297938781FACB
:1035400081468907631ED800B14723AAF18A9305F3
:1035500045F81386418B4685EF10E0676FC09FCB1F
:1035600003C6C70083C5B700850622064D8EC20676
:103570002310C700C1820907E9B70946EFF03F8D64
:10358000F1BF938781FA03C7870083C69700FD15B3
:103590002207558F2397E18A03C7A70083C7B70087
:1035A00093F5F50F2207D98F2399F18ABD4763EE72
:1035B000B702EFC2FFC3B5679387079C8A05BE9524
:1035C0009C418287EFF0DF8E6FC0DFC4EFF01FAF4A
:1035D000E5BFEFF0BFBCCDBFEFF09FCBF5B7EFF08D
:1035E0001FD6DDB7EFF0FFECC5B78280EFC25FC03A
:1035F000138481FA8347540003474400E915A20766
:10360000D98F13978700A183D98FC207C183AA845A
:103610006392F506034764009307F00F6304F70411
:103620008345740015479387F5FF93F7F70F637988
:10363000F700938715FF93F7F70F05476367F700C8
:103640002685EFF01FF46FC0FFBC37D500001305CF
:1036500005A0EF7020210546834574002685EFF014
:103660000FFFD5B737D50000130505A2EF70801FF7
:103670000D46DDB737D50000130505A4EF70801E99
:103680001146D9BFEFC23FB54111AA892E89B28434
:1036900013042003CA8570004E8526C6EF10A05380
:1036A000B2477D141374F40F9D8C3E9911C0FDF048
:1036B00041016FC09FB5EFC2BFB3AE84B7D5000064
:1036C0002A84938545AE2685EF70C02B09E9B7D5CE
:1036D0000000938585AE2685EF70C02A31C18547ED
:1036E0002300F4002380F400A380F4002381F4007D
:1036F00093070003A300F40209047D469385540058
:103700002285EF601076B7D50000938505CB228522
:10371000EF70202BAA852285EF7080246FC09FAFA9
:1037200023000400E5BFEFC2BFAC2A842E85B7D5C5
:1037300000009385C5AEEF70E024854719E903A525
:10374000818BB7D50000938545AFEF70A023B337C9
:10375000A0002300F4006FC0FFABEFC27FA90111EE
:1037600002CC02CE23000500A300050023010500C2
:10377000A301050005472A84B28681476396E500C8
:10378000B7D70000938787AABE85228536C6EF701B
:10379000201DB24637D600001306C699A145280859
:1037A000EF70000D2C082285EF70E017B7C5000000
:1037B000938545792285EF70001705616FC09FA53D
:1037C000EFC21FA337B400200566AA842E89130612
:1037D0000640814513054408EFC09FA44A86A6858C
:1037E00013054408EF60F0676FC0DFA2EFC25FA06F
:1037F000AE842A89EF70E0172A842685EF7060175F
:103800008146814763DA8702B305F440014729A85E
:103810003308F7004A983386E400030808000306DB
:1038200006006319C80005076304B700E342A7FE5A
:103830008506AA978507F9B736856FC0BF9DEFC289
:103840003F9B411132C6EF70000EB7C50000938553
:103850000579EF70400D3246B285EF70C00CB7D5D8
:10386000000093858585EF70000C41016FC09F9A21
:10387000EFC29F9513010181B7D5000037040020E6
:103880009385C5AF280013040400EF70600D938486
:10389000815E130904032800EF70A00D03D6040015
:1038A0000C403C003E951104EF7080038904E31442
:1038B00024FF2800EF70E00B3C00B1653E95938536
:1038C000C52BEF70E009B7090020B7D5000093853C
:1038D00045AE13858938EFF07FF1B7D500002A8413
:1038E000938585AE13858938EFF05FF0B7D500007A
:1038F0002A94938505B013858938EFF03FEF137450
:10390000F40FB7D500002A94938585B013858938C4
:103910001374F40FEFF09FEDB7C400202A94938442
:103920004448316A1374F40F938B2400B7DC000011
:10393000130A0A2C11E41301017E41016FC05F8C50
:10394000938589382685EFF01FD7038704007D14FF
:1039500085471374F40FE31FF7FC1389818BDE8511
:103960001385140023207901EFF0FFDB0325090004
:1039700093858CB9EF7000011389C18B39C528007C
:10398000EF60307FAA8AAA852800EFF07FE3838565
:10399000140037CB0020568613058B4AEFF0FFDB6F
:1039A00013058B4AEF60F07C2A86034509009305D6
:1039B0008B4AEFF03FCDB7B500205686938545087A
:1039C00003450900EFF01FCCB5B74946D285881FE3
:1039D000EF6030491306E03E814513052140EFC0FA
:1039E0003F8437D60000B7D50000130606B1938593
:1039F00045B1881FEFF0BFE437D60000B7D500000F
:103A0000130606B39385C5B3881FEFF05FE3B7DAFB
:103A10000000B7D500001386CAB59385C5B6881FC8
:103A2000EFF0FFE137D600001306C6B89385CAB59C
:103A3000881FEFF0DFE0B7D5000093858585881FEC
:103A4000EF60706EB7D50000938505BA881FEF60F0
:103A5000906D881FEF60F0712A868C1F95B7EFC2BA
:103A60008FF70111AA898545116502C202C402C6F9
:103A700002C802CA02CC02CEEFE04FAE8545114526
:103A8000EFE0CFAD37140140930700200D49E1442A
:103A90004C00130504802312F1004AC426C6EFE04F
:103AA000EF84854537050200EFE02FAD85451145D0
:103AB000EFE0CFAA91474C00130504802312F100D8
:103AC0004AC426C6EFE08F82A1472312F1004C00C2
:103AD0009147130504803EC637440140EFE00F8153
:103AE000B70708000C08130504803ECC4EC802CA74
:103AF000231E0100EFE06FC3130504808545EFE04E
:103B00002FCD374400400C0813050440EFE0EFC10F
:103B1000854513050440EFE0AFCB05616FC0EFEEC4
:103B2000EFC26FEBB7440140AE8932890144938400
:103B30000480634524014A856FC02FED930500047E
:103B40002685EFE04FCB7DD9B387890083850700B9
:103B500026850504C205C181EFE04FC9D9BF13878F
:103B600081811C43B7C600209386466D3E95636BEA
:103B7000D500B70602209386068063E5A60008C339
:103B80003E858280FD57EDBF7325103482807325FA
:103B900020348280732530348280EFC26FE583A7A2
:103BA000818841113EC6EF10001F11896300051482
:103BB0009387818D9843B246998E37C7002003279B
:103BC000076105836376D700324798C3EF303053DF
:103BD000EF30907E83A7818E91C7EF30705419E14A
:103BE00023A4018E9384418D9840B247998F130787
:103BF000703E6376F700EF20C01EB2479CC09387EB
:103C0000018C9843B246998E05671307773863761F
:103C1000D700324798C3EF10A05AB7C70020938748
:103C2000475DD84711CF1387018D1043B246918E5F
:103C30001306703E6376D600B246DC4314C3829707
:103C4000B7C4002083A7C457A9CB1387C18C1C43DA
:103C5000B2461306A00F9D8EB7C7002083A7C76486
:103C6000ED83B387C70263E9F600B2471CC39387AD
:103C7000C4579C4B91C382979387818C9843B246DB
:103C8000998E3D671307F7A56379D7003247938470
:103C9000C45798C3DC4891C3829732459384418CC2
:103CA0007D2C9C4032471D8FBD679387F7A563F538
:103CB000E700952CB2479CC003C7518EBE84137792
:103CC000F70F0DC703C7518E1377070C1DE3B7C756
:103CD000002083A7476599C30545829703A781887C
:103CE00023A0E18E93070004A382F18E41016FC0EF
:103CF0006FD203C7518E1377070415CB83A6018EAD
:103D000003A781881389018E158F93064006E3FF70
:103D1000E6FCB7C7002083A7476599C30145829792
:103D200083A781882320F900930700F875BF03C794
:103D3000518E62076187E35B07FA83A6018E03A7B2
:103D40008188158F93064006E3F2E6FAA382018E7E
:103D500071BFEFC2EFC937C5002013054566EF10EC
:103D600030296FC02FCBEFC2AFC8B7C700209387F1
:103D7000475FD85737C4002088D313674700D8D788
:103D80001189930784639C4F1304846301CD99C305
:103D9000014582975C4C99C3014582970545AD2248
:103DA0006FC04FC799C3054582975C4CF5DB05454D
:103DB0008297FDB783A7C189232005009DCB94433B
:103DC00063DB0600D4479042634506029C4363D4FC
:103DD000070023AED18883A7C18991650146FD15EF
:103DE0003548B7080080944363D7060019C223AE54
:103DF000F1880145828094431393060163420304D2
:103E0000944393F606108DCE944393F606208DCA04
:103E10009443C182ED8EF11614C16371D8029443AC
:103E200093F6060281EA19C223AEF1889C475CC171
:103E300005458280944393F61608F5D623200500A5
:103E400023A017010546DC4779BF03A7C189B70640
:103E5000008014C3584723AEE1888280EFC24FB977
:103E600083C7518E93F7F70F81E78547A382F18EC1
:103E700003A781889387C18D09CB98C3B7C700205A
:103E800083A7876582976FC0EFB80547FDB7B7F77F
:103E9000FF1F03D567701375050F8280EFC24FB502
:103EA000B7C7002083A787650149B9C783A4818765
:103EB000A1C49C4003A984001384C18D63DC070264
:103EC000EFF0FFFC1440814713060008130830068A
:103ED000A168130300036304C5006312650203A70E
:103EE0008188158F6364E80063FBF8009C408607B7
:103EF00085839CC0232004004A856FC0AFB19840E1
:103F0000E35A07FE8507C1BF03A78188B7C7002012
:103F10009387075788A3239107002392070098C728
:103F2000A38007008280EFC2AFACB7C40020138427
:103F300044665C4041116C00138544663EC62322F2
:103F40000400EF10E048B2476C00138544665CC083
:103F50005C443EC6EF10C04741016FC0AFABB7C76E
:103F6000002093870757982319E388C782809847D2
:103F70009306703E3307E54063F3E602EFC24FA7B6
:103F8000BA2388C7914663F7E6000145EFF0DFF7F3
:103F90006FC04FA80507BAA3EFF0FFF8D5BF828026
:103FA000EFC20FA52A840145EFF01FF6B7C7002026
:103FB0009387075711C8054798B3B7C7002009472B
:103FC00023A0E7626FC00FA5A3800700E5BF828032
:103FD00003288503630B0802EFC28FA1FC5D014734
:103FE00091C70507420741839C43DDBF83A70508AE
:103FF00091C70507420741839C43DDBF81460146C7
:104000008145029801456FC0EFA0014582800145BE
:104010008280EFC26F9B5C42032A85000329C500A2
:104020000049AA8488239C33B289A2075D8DEF10D2
:10403000700B9355650093F5C503B305B0404E85ED
:10404000EF20504049E5DC44984C03DB8900998F10
:1040500063F867014E85EF20D04505456FC04F9A44
:104060004A9A4E890356A900B30A8A40832B490015
:1040700063F4CA045686DE852285EF60805E83572E
:10408000A9009844330444413E942286B3855B01E1
:104090003A85EF60005D2A9403290900E31409FCC6
:1040A0004E85EF2010419C4C80C8DA979CCC9C40F8
:1040B00093E747009CC055B72285DE85EF60605AC4
:1040C0008357A9003E94E39957FD8044F1B7014519
:1040D00071B771CAEFC24F8F832BC5001C4D035BB4
:1040E0008600BA8AB387FB40368A32892A8463F70E
:1040F00067013285EF20F03B6FC08F901C4504496B
:10410000B289BE9B03D6A900338C9B4083AC490087
:104110006377CC066286E6852685EF60805483D778
:10412000A9001844B3847441BE942686B3858C01DB
:104130003A85EF600053AA9483A90900E39409FC2F
:104140004A85EF201037032884036305080483455C
:104150001A0083470A001448A205DD8D83472A0010
:104160005A875686C207CD8F83453A002285E205DD
:10417000DD8D02981C44232C04001CC8B5BF268585
:10418000E685EF60004E83D7A900BE94E39687FBD7
:1041900004445DB7184C1C4004C85A9793E7470085
:1041A00018CC1CC091BF828018519547631AF70C38
:1041B000EFC28F811C492A847D55D9CF328AAE84C3
:1041C00055CA832A84005844835B86003289BA9A90
:1041D000C20A93DA0A019399070193D90901338B33
:1041E0003A410356A900420B135B0B01032C490013
:1041F0006376CB065A86E2853E85EF60804603579C
:10420000A9001C44B3056C0133075741BA99C20990
:1042100093D909013E854E86EF60A044B30735016E
:1042200003290900E31909FA184C1CC852855E9746
:1042300018CC18401367470018C0EF209027FE38AD
:10424000184C2685B38B77415C44239B7403998F6C
:10425000DEB4EF30600D01456FB09FFA3E85E28518
:10426000EF6020400357A900B307E500E31A67FB9E
:104270001C447DB70145EDF22E85EF300054E9BFB7
:1042800065558280EFB23FF5B7B9002003C6418E75
:104290001387C9E181479389C9E193F6F70F63E575
:1042A000C6006D556FB07FF603280702938617008E
:1042B0001307C70363040800B687C5B71309C00313
:1042C000338927032E842A8A1306C0038145B384C9
:1042D00029012685EFB0DFF41305C90211469305C5
:1042E00044004E95EF60E0375E3080D8A685DCD084
:1042F00083278A0222859CD4EF304012B745000004
:104300009385E5FC2285EF306012B7450000938568
:10431000851A2285EF30C010B7450000938505FD52
:104320002285EF304010B745000022850546938571
:10433000E500EF3040108D47DCCC95479CD09C20A9
:10434000014593E787009CC0B1BF19C93305A04060
:10435000B5679387C7BD1375F50F3E950821828019
:1043600001458280EFB2DFE89307C003B387F5020F
:1043700037B400201307C4E12A89AE841306C003B2
:1043800081451304C4E1BA973E85EFB07FE9630726
:1043900009001306C003CA85EF60A02C9305C00373
:1043A000B385B402A2959C459CC9DCC96FB09FE659
:1043B000EFB27FE22A8A37C500204111AE89B2846C
:1043C000814561461305C55736C6EFB07FE5B24655
:1043D00037C400201309445FB68519461305C90088
:1043E000EF6020281146D2851305445FEF606027F7
:1043F0001146CE8513054900EF60A0261304445FE3
:10440000A1E0B7070001FD171CC4814483C7418E9A
:1044100063CFF402EF10C04485475CD01567B7C77F
:1044200000209387875E130707E298C3116713077D
:1044300087A9D8C3254798C7014541016FB0FFDC64
:104440001146A68513058400EF60A0217DBF93F57A
:10445000F40F0145EFF01FF185044DBF1855B75714
:104460003412938787676310F712EFB2DFD61C51BF
:104470002A8425456381071037C9002013064004AC
:1044800081451305495FEFB0BFD9B7C400201306BB
:10449000C002814513858463EFB09FD81306C00224
:1044A000A28513858463EF60C01B9389846303A78F
:1044B00049014A869387846325EBB56603D7069A3C
:1044C0009386069AAE222E97CE22F6222E97369704
:1044D0009316270163D3060AD8CBD84B9356E7002F
:1044E000FD8A89EAB746F8FFFD16758FB706050005
:1044F000558FD8CBD84B93563701FD8A89EAB746FA
:10450000F8FFFD16758FB7065000558FD8CBD84BE6
:104510009316670063CA0600B70600FEFD16758F86
:10452000B7060014558FD8CBD84B9356B70189E600
:10453000B7060040558FD8CBD85311E73747000056
:10454000130747DBD8D3D44B014513D7E6007D8B47
:104550002382D18E9307465F98CF13D736017D8B88
:10456000130620033307C702D8CF1397660063549E
:1045700007000947B8C36FB05FC9F976FD16758F9C
:104580008966558F91BF1305F00F82806545828043
:1045900003C6418EB7B700209386C7E101479387D2
:1045A000C7E16317E60081476313F7020145828084
:1045B00003A807036317A80009C50545EDD998A10D
:1045C000828005071377F70F9387C703D9BFD05AA7
:1045D0006319A60019C50545F9D993E707F89CA109
:1045E0008280850793F7F70F9386C60375BFEFB2F6
:1045F0009FBE37B900202300050003C7418E41113B
:104600009307C9E181441309C9E1631797001305B2
:10461000000241016FB07FBF9387C70383A647FEA7
:1046200063810618850493F4F40FC5B7B7C700205B
:1046300083A7475F6C003EC6EF20101B1146930511
:10464000C4026800EF60E0016C004E85EF20B01BF3
:104650001306C0033386C402B745000093852501C5
:104660004E854A96EF20101C954737C500206C00F8
:10467000232834031CD013054566EF007055A6852A
:104680002285EFF03FCE014569B709476390E70AFD
:10469000EF50702BAA8963030512930AC4021146D6
:1046A000D6856800EF50F07B324A370500F0EF10F6
:1046B0008026337AAA00370500E0EF10C02563009A
:1046C000AA04B7C50020938545666800EF10C06C4A
:1046D0001DE5B7C7002083A7475F12346C004E85E5
:1046E0003EC6EF5010001DE1D68511466800EF5020
:1046F000507752306C004E85EF50B01939A012340B
:10470000938581844E85EF50C07D01C5EFF0FFC3D6
:1047100009B71306C0033386C402B745000093856A
:10472000250D4E854A96EF50B01E3DBF0D4713052F
:104730001002E390E7EEEF3040445C4412346C002A
:104740005EB9B7C7002083A7475FAA893EC6EF209E
:10475000B0222A8A11C54E85EF30200652857DB7DA
:104760009305C003B385B4024E85CA95EF20104B64
:10477000B74500004E859385E5FCEF20304B95470B
:10478000A685228523283403232A34031CD0EFF086
:104790007FBD37C500206C0013054566EF00504310
:1047A000DDB504A1DC4DC4C12E84E39007EE0345C2
:1047B0008402EF207013AA89E31A05E6454591BDEE
:1047C000EFB21FA34EB52A84EF20103609CD8347E0
:1047D0006402228593E727002303F402EF40B061CF
:1047E00005456FB03FA3B7C7002083A78764A183A7
:1047F000858BFDD783476402858BFDD38947A3034F
:10480000F402054723A4E18EE1BF83C7418E63769E
:10481000F5041307C0033305E502B7B700209387FB
:10482000C7E13E95584D232C050050C50CC50CC959
:104830004CC98D476313F702085905C15A3993379C
:104840001600631CF700EFB2BF9A93150601C181F1
:104850004EB9EFF0FFF66FB0FF9B8280EFB2BF97CB
:1048600014426944CDCE23200600328A1306C003C9
:104870003306C502B7B400201387C4E1AA89AE8706
:104880009384C4E13297032B8700504703298701A3
:10489000404B329B63F326013689B30A8B4063F3A6
:1048A0002A0981CB3E855686A285EF50905BB307DF
:1048B00055011307C0033387E9024A943304644166
:1048C0002697832A870091C72286D6853E85EF509A
:1048D000505956949307C003B387F90223202A0145
:1048E000A697984FC0CB3309274123AC2701631803
:1048F00009009847D8CB98CB98436D9B98C39307F2
:10490000C003B389F9028D470144CE94D84C631893
:10491000F70063160900CE248858EFF07FEA22855D
:104920006FB0BF8E91C74A86A2853E85EF50705307
:104930004A94E3912AFB9307C003B387F902A69731
:10494000804749BFB7B700209387C7E181C91307E4
:10495000C0033307E5023E97584B98C11307C003C5
:104960003305E502AA97884F8280EFB2FF850042A7
:104970002320060055C4AA876945D9C51305C0037D
:10498000B387A70237B500201305C5E1B7CA0020D9
:104990008144AA9703AB070393874A5FBC43938A7A
:1049A0004A5F898B99E39304700C9307805C63F4EE
:1049B00087001304805C931C0401328A2E8993DCE7
:1049C0000C01130C800C0146E6850145EF204033B5
:1049D000AA8929C948412286CA8523AE0A02EF5016
:1049E0005048CE855A85EF20206CAA8B4E85EF204B
:1049F000402C83A7CA0399CB8504C204C180EFF081
:104A00004FB5E39284FD4D456FB08FFF63D60B0029
:104A10005E85EFF09F93CDBF23208A000145EDB75F
:104A20006945DDB74545CDB7EFB20FFA0042232007
:104A3000060055C4AA876945D9C51305C003B387C5
:104A4000A70237B500201305C5E1B7CA002081448D
:104A5000AA9703AB070393874A5FBC43938A4A5FD5
:104A6000898B99E39304700C9307005C63F48700CF
:104A70001304005C931C0401328A2E8993DC0C0120
:104A8000130C800C0146E6850145EF206027AA89BA
:104A900029C948412286CA8523AE0A02EF50703CDC
:104AA000CE855A85EF50C05DAA8B4E85EF206020E1
:104AB00083A7CA0399CB8504C204C180EFF06FA914
:104AC000E39284FD4D456FB0AFF363D60B005E8576
:104AD000EFF0BF87CDBF23208A000145EDB76945C0
:104AE000DDB74545CDB7EFB22FEE83290600232071
:104AF0000600638E090CAA872E8B6945A1C1130598
:104B0000C003B387A70237B500201305C5E137CA34
:104B10000020B28B930A900C8144114C130A8A63D3
:104B2000FD5CAA9703A90703FD1AC20A93DA0A01DA
:104B300063980A0083A70B00C9CB01456FB04FEC07
:104B40008327090163978709EFF0AFA0035769072F
:104B500019E34545E5B783270A01858B99E3E36AA5
:104B600037FF03244A00637387003A8463F38900A4
:104B70004E84131604014182854691E38146DA850D
:104B80004A85EF40501DAA844A858DE4EF40B02647
:104B900083A70B00B3898940AA84A29723A0FB00B6
:104BA000229BE38C09F883270A01858BB5FFEFF080
:104BB000CFF969B763999401EF40F02383270A0185
:104BC000858BBDF379B7EF4010232685CDB76945B6
:104BD000B5B75D45A5B79307C003B307F50237B76F
:104BE00000201307C7E1BA9703A807021547630718
:104BF000E800DD47232006003E858280EFB24FDFCC
:104C0000D84F8D476318F700EFF0FFEDAA873E8578
:104C10006FB04FE001E7EFF05FD5CDBF8946930756
:104C2000A00FE316D7FEEFF03FE0CDB7EFB24FDCB9
:104C3000A147AA840021638AF50263ECB700854787
:104C40006381F502894713642400638EF5006FB019
:104C50006FDCC147638EF5009307000413640404FE
:104C6000EDB71364140080C0DDB713648400E5BFA2
:104C700048591364040165D9EF203034EDB7EFB221
:104C80002FD741119305F1002A89A3070100EFF006
:104C90003F9015C5808793178401E18763D407028D
:104CA0001374F4071307C0033304E402B7B70020FA
:104CB0009387C7E13E94232A040223200402410182
:104CC0006FB04FD583C7418EE37BF4FE1307C0035B
:104CD0003307E402B7B700201385C7E19384C7E127
:104CE0003A95544D0D47E39CE6FC8327090105479F
:104CF000DD1793F7F70F636DF700C145EFF01FF372
:104D00009307C0033304F40226942328040275B7E2
:104D10001C2193E707041CC1E5B737B7002083C601
:104D2000418E1307C7E18147638FF6001307C7035E
:104D3000032647FC11CEB7C700209387475FD8579B
:104D400013670701D8D7B7C7002003C50762828061
:104D5000850793F7F70FC9BFEFB28FC9EFF0FFFBDD
:104D6000B7C7002023A007626FB0CFCA83C7418EA8
:104D70006371F5029307C0033305F502B7B700204E
:104D80009387C7E1AA9798431375F70F118B98C3C0
:104D9000828001458280B7C7002003C547618280B9
:104DA0001307C0033307E502B7B700209386C7E1B6
:104DB0003697105395466319D604EFB26FC3045B60
:104DC000585B9387C7E1630497005D479DE8130430
:104DD000C0033304850226853E94A285232804025D
:104DE000EF20C0639305F00F2685EF20404A45472A
:104DF00009C9B745000048D893854528EF2060636E
:104E000001473A856FB00FC15D473A858280EFB2A6
:104E10002FBE1304C0033304850237B500201305E9
:104E2000C5E1DD442A94085801CD185095478144C6
:104E30006318F700EF50202E2328040223200402D9
:104E400026856FB02FBDEFB2AFBA1304C003330491
:104E5000850237B500201305C5E1DD442A940858C2
:104E600001CD1850954781446318F700EF20C02406
:104E7000232804022320040226856FB0AFB9EFB2C5
:104E80008FB59307C003B307F50237B40020930929
:104E9000C4E12A8941111304C4E18144BE9903A5E8
:104EA000490301C92EC6EF205011B245AA8423A0A0
:104EB00009029307C003B307F902A297885B09CDE3
:104EC00085E1EF20900FAA8481E81305C003330524
:104ED000A9022A9423200402268541016FB0EFB273
:104EE00085476396F5008545EF20502BF1BF894734
:104EF0006394F5008145CDBFD954F9BF03C7418EF6
:104F0000637BE5041307C003B307E50237B700204E
:104F10001307C7E19546BA9790535D47631ED602C3
:104F2000EFB20FADDC4F09476397E700EFF03FEEBC
:104F30006205618531A00D47639AE700EFF03FF409
:104F4000EFF0AFC02A873A856FB0CFAC6547E5FF79
:104F5000EFF07FEFF1BF69473A858280B7C7002045
:104F600003A5C764358105898280B7C70020938770
:104F7000475F05474111C8CB94DBD0DB8CDFD8D726
:104F800041018280B7C70020054723A8E7628280DD
:104F9000EFB20FA6B7C7002003A6476483A6C1815E
:104FA000131786016187630B051483C7C18E61489F
:104FB00089483388070336980323C8006310131504
:104FC00003431500834805000328080022033363C8
:104FD000130183482500C20833E368008348350085
:104FE000E208B3E86800639B0811E207E1873E85A9
:104FF0006FB04FA2B3885702B69803AEC8006319CA
:10500000060763170E061398870113588841850712
:1050100093F7F70FE3E0C7FE6317060193F8150057
:10502000FD57E38608FC8989FD57F1F19377F80F66
:10503000636BC8009377F30F6367C300FD57E37892
:10504000C7FA9377F70F61473387E702BA9623A62B
:10505000060001CD103118212206598E3821420751
:10506000598E38316207518F98C2238806000DA8E7
:1050700063147E040DC9834E1500034E0500A20E75
:10508000B3EECE01034E2500420EB36EDE01034E99
:105090003500620E336EDE0183AE08006315DE015B
:1050A0002386F18E99B783C80801E3E2E8F71397E6
:1050B00087016187468FA1BFE31B8EF415C5834E20
:1050C0001500034E0500A20EB3EECE01034E2500DF
:1050D000420EB36EDE01034E3500620E336EDE010A
:1050E00083AE0800E30EDEFB83C80801E3E1F8F3BA
:1050F0001393870113538341C68F11BF3A883A83B4
:10510000814F014F8147E1428543094421B7EFB206
:105110008F8C98319C21368A22075D8FBC215441A7
:10512000C2075D8FBC31E207D98F639BF60089E629
:10513000D9573E856FB06F8D0545EFE07FE6CDBF57
:10514000E5DB2E842A89AA852285B289EF00D04426
:1051500065F11C300420370500F0A207C58F24201C
:10516000C204C58F2430E204DD8CEF00C07AE98CE4
:10517000370500E0EF00207AE38CA4FAD28522857F
:10518000EFF01FE1AA87E34605FAE147B307F5020E
:1051900003A5C1813E9589475CC5232A25019387D4
:1051A00059001307950094237D1714B39386F7FFD6
:1051B0006396F900230805008147A5BFB687E5B7C8
:1051C000B7C7002003A5476403A8C1810147E14890
:1051D00009430546130EF00E6363A7008280B306F1
:1051E0001703C2969C2ACC46850793F7F70F9CAA13
:1051F00063986500636AFE0005071377F70FE9BF40
:10520000E39CC5FEE37AF6FE23A60600F5B721CDA2
:10521000EFA21FFEC4412A84DC34C824A2075D8D9E
:10522000EF00606BA16793870710938524016304E7
:10523000F5009385E400D835DC2522075D8FFC2539
:10524000C2075D8FFC35E207D98F5840B98F1844EB
:10525000F98F81EB814613866400B1052285EFF05A
:105260001FEB6FA03FFB828063030516EFA2BFF622
:105270003A26930790024111B2892E8AAA8463E8E4
:10528000E7004E85EF10F02241016FA01FF80329BF
:1052900046008347D9000345C90013042901A2072A
:1052A0005D8D152DA167938707106304F500130426
:1052B000E900834A14001C200545A20AB3EAFA005B
:1052C000192DE390AAFC834A54005C20130540602A
:1052D000A20AB3EAFA000125E395AAFA834A340048
:1052E0003C200565A20A13050580B3EAFA00E52310
:1052F000E399AAF8930AE4001146D6856800EF50B6
:105300004036D44013068400ADC2183C1C2C220742
:105310005D8F3C2CC2075D8F3C3CE207D98F6396C2
:10532000F60485466C002685EFF07FDE054B7C3069
:105330006820A2075D8D45238547630FF5028947E5
:10534000E311F5F46C002685EF102033B7C7002079
:1053500003A7C757E30707F29387C757DC47E382E2
:1053600007F26C002685829729BF81466C0026854E
:10537000EFF0FFD9014B65BFE3050BF00945A12B09
:1053800068A0218168B01146D68513058401EF50CD
:10539000402D1146938544005685EF50802C3504EE
:1053A00015099547FD5618207D197D1438B4A300C2
:1053B000E9003307FA001823FD1718B0A303E9002A
:1053C000E393D7FE9C4CCE85268582975DBD828077
:1053D000EFA27FE02A89AE8901469305A0020D4520
:1053E000EF1010127D544DC94041AA840545E521B6
:1053F00048A8218148B89306E9029307540015474D
:1054000093850184138681837D5503C80600FD17AB
:10541000FD16A38B07013388E50003480800A3802D
:1054200007033308E600034808007D17A38007013F
:1054300003C81600A3830701E319A7FC11469305CF
:1054400049001305C401EF50C021CE851146130554
:105450006402EF5000210545BD2968A485692181BA
:1054600068B413850980852908A8218108B8130527
:105470004060952128A8218128B813856980A12939
:105480008327890148A4218148B4A6854A8582974B
:105490002A842685EF10F00122856FA01FD7EFA286
:1054A0009FD32E842A89AA852285B289EF00D00E47
:1054B00001C559556FA07FD51C300420370500F079
:1054C000A207C58F2420C204C58F2430E204DD8CDE
:1054D0009921E98C370500E03D29E38CA4FC1830C4
:1054E0001C2022075D8F3C20C2075D8F3C30E20705
:1054F000D98FE1D385452285EFF09FA9E34C05FACA
:10550000E147B304F50203A7C181138AC18185472E
:105510002697544799EA5CC7EFF0DFA6A2854A8533
:10552000EFF01FEBE38809F831A0E387F6FE7D5525
:10553000E38409FE83270A000947A697D447E39B23
:10554000E6F603A44900138797001306E9029306C1
:1055500054008D070C237D17FD168CB20C227D168E
:10556000ECB2E319F7FE056513050580AD26832728
:10557000890148A4218148B4CE854A8582971DBF00
:10558000EFA27FC5AE8441112A89B94526853284B0
:10559000EF10406B631E0510CA852285EF00C07FA7
:1055A000631505101C3083490400370500F0A2077D
:1055B000B3E7370183492400C209B3E7F9008349FF
:1055C0003400E209B3E9F900B926B3F9A9003705B7
:1055D00000E091261020143038203C30639CA9084C
:1055E00013958600518D4207598DE20785456C84DD
:1055F0005D8D9305E0054C85392E41811375F507C6
:10560000C88508301C2022055D8D3C20C207C98F4B
:10561000283062055D8D01262181488608301C20D6
:1056200022055D8D3C20C207C98F283062055D8D43
:10563000DD24C8863400C04095477D5613075400CA
:10564000B385F6008C217D170CB3B305F90083C533
:105650009502FD176CB3E395C7FE0565130505803C
:105660009D2C8327890148A4218148B4A6854A85B9
:1056700082970DA8A206D18E4207558FE207D98FD7
:1056800003274900B98F03278900F98F99C783271A
:10569000C900715581CB1304C9002686A2854A85AD
:1056A000EFF0FFDF41016FA05FB69386818361B7A2
:1056B0007955CDBFEFA2DFB344412A842E89DC3473
:1056C000C824A2075D8D012CA1679387071063177B
:1056D000F5009C388828A2075D8DF52A9307058080
:1056E00091CB8567938767806302F5042285EF106D
:1056F000405C15A8A2854A85EFF07FB1DC34C82450
:10570000A2075D8DC92AA16793870710B945631366
:10571000F500C945B305B0402285EF10A05279F5D8
:10572000CA852285A92401456FA0DFAE2286930594
:1057300099024A85EFF05FB3FDB7EFA27FABB7C721
:105740000020938747595CD193075006A309F502BF
:105750009307E006230AF502B7570000938707581E
:105760005CC9B75700009387E7791CCDB7C5002007
:1057700099472A842304F502232E050019469385B0
:10578000D56813059502EF40D06D9307C05D1EB834
:10579000930730032309F40201456FA0BFA7EFA2CE
:1057A0003FA5B1642E8493841435EFF0CFDE1189C8
:1057B00015CDFD1485CCEFE06FEE2A897DD5AA8743
:1057C000814401E8CA852685EFE04FE901456FA0D5
:1057D0007FA432244C403E85EF40B0683A2400401C
:1057E000BA94C204B307E500C180E1BF5155C5B703
:1057F000EFA27F9EB7C7002083A7C765AA8913853C
:10580000018F9384018F82978C40A9C983C7518EE1
:105810001384018F93F7F70F81E78547A382F18EF9
:10582000C2050D46C1810D454440EF10604D2A89E7
:1058300015C52A8432244840A685EF4090623E2454
:105840000040BE9465F8EFE04FE083A70901CE85E4
:105850004A85829701C54A85EF10A0456FA0FF9A3F
:10586000EFA21F99411137C4002002C202C402C630
:10587000EF00D07813054466B7C50020194693851C
:10588000056013059502EF40D05DB7C7002003A760
:10589000475F9387475F130544663AC29847DC43E6
:1058A0003AC43EC623A8019023A60190EF10A03869
:1058B00037580000B7570000740030004C00130840
:1058C000486B9387A773014713054466EF100031B7
:1058D00041016FA03F949317850021815D8D4205A2
:1058E000418182809317850021815D8D4205418130
:1058F00082801357850193178501D98FB706FF0062
:1059000013178500758FD98F4167130707F0218121
:10591000798D5D8D8280EFA2BF8DEFF09FFD6FA02E
:105920007F8FEFA2FF8C03A40191AA8401EC03A551
:10593000C19011C5EF10803019C103A4C190228518
:105940006FA05F8D2285EF10602F05C198309C20DD
:1059500022075D8FBC20C2075D8FBC30E207D98F64
:105960005840B98F1844F98FF9DB0040C1B7EFA256
:10597000BF854041AA84AE891C300820A2075D8DF6
:10598000EFF05FF631814205418191476306F500F2
:105990002685EF10003231A41C300820A2075D8D4F
:1059A000EFF05FF419813C30137AC5032820A20779
:1059B0005D8DEFF03FF3BE242A89E3EB47FD9E2483
:1059C000E3E8A7FCD2852285EF40704171F1CA85DA
:1059D0002685EF10E046370500F0EFF0DFF33705DE
:1059E00000E0EFF05FF34E89054B930B04014A850D
:1059F000EF10C02411E563130B12032909000DA257
:105A000093074900EDDB83264900F5D618381C289A
:105A100022075D8F3C28C2075D8F3C38E207D98F93
:105A20006382F604CA855E85852E0DED1C38834A97
:105A30000401370500F0A207B3E75701834A2401A8
:105A4000C20AB3E7FA00834A3401E20AB3EAFA0071
:105A5000EFF07FECB3FAAA00370500E0EFF0BFEB00
:105A6000E39BAAF858345C2422075D8F7C24C2078C
:105A70005D8F7C34E207D98FB9C3CE851305C4008E
:105A8000212EE31705F05C34034AC400370500F00B
:105A9000A207B3E74701034AE400420AB367FA00EA
:105AA000034AF400620A336AFA00EFF0DFE6337A61
:105AB000AA00370500E0EFF01FE6E30BAAECE309CC
:105AC00009EC03497400682022093369A9001165B3
:105AD0007D15EFF05FE03375A90011C52685ED2631
